{
    "_format": "hh-sol-artifact-1",
    "contractName": "BooksLibrary",
    "sourceName": "contracts/BooksLibrary.sol",
    "abi": [
        {
            "anonymous": false,
            "inputs": [
                {
                    "indexed": false,
                    "internalType": "bytes32",
                    "name": "id",
                    "type": "bytes32"
                },
                {
                    "indexed": false,
                    "internalType": "string",
                    "name": "author",
                    "type": "string"
                },
                {
                    "indexed": false,
                    "internalType": "string",
                    "name": "title",
                    "type": "string"
                },
                {
                    "indexed": false,
                    "internalType": "uint8",
                    "name": "copies",
                    "type": "uint8"
                }
            ],
            "name": "LogAddedBook",
            "type": "event"
        },
        {
            "anonymous": false,
            "inputs": [
                {
                    "indexed": false,
                    "internalType": "address",
                    "name": "borrowerAddress",
                    "type": "address"
                },
                {
                    "indexed": false,
                    "internalType": "bytes32",
                    "name": "bookId",
                    "type": "bytes32"
                }
            ],
            "name": "LogBorrowedBook",
            "type": "event"
        },
        {
            "anonymous": false,
            "inputs": [
                {
                    "indexed": false,
                    "internalType": "address",
                    "name": "returnerAddress",
                    "type": "address"
                },
                {
                    "indexed": false,
                    "internalType": "bytes32",
                    "name": "bookId",
                    "type": "bytes32"
                }
            ],
            "name": "LogReturnedBook",
            "type": "event"
        },
        {
            "anonymous": false,
            "inputs": [
                {
                    "indexed": true,
                    "internalType": "address",
                    "name": "previousOwner",
                    "type": "address"
                },
                {
                    "indexed": true,
                    "internalType": "address",
                    "name": "newOwner",
                    "type": "address"
                }
            ],
            "name": "OwnershipTransferred",
            "type": "event"
        },
        {
            "inputs": [
                {
                    "internalType": "string",
                    "name": "_author",
                    "type": "string"
                },
                {
                    "internalType": "string",
                    "name": "_title",
                    "type": "string"
                },
                {
                    "internalType": "uint8",
                    "name": "_copies",
                    "type": "uint8"
                }
            ],
            "name": "addBook",
            "outputs": [],
            "stateMutability": "nonpayable",
            "type": "function"
        },
        {
            "inputs": [
                {
                    "internalType": "bytes32",
                    "name": "",
                    "type": "bytes32"
                }
            ],
            "name": "availableBooks",
            "outputs": [
                {
                    "internalType": "bool",
                    "name": "",
                    "type": "bool"
                }
            ],
            "stateMutability": "view",
            "type": "function"
        },
        {
            "inputs": [
                {
                    "internalType": "uint256",
                    "name": "",
                    "type": "uint256"
                }
            ],
            "name": "bookId",
            "outputs": [
                {
                    "internalType": "bytes32",
                    "name": "",
                    "type": "bytes32"
                }
            ],
            "stateMutability": "view",
            "type": "function"
        },
        {
            "inputs": [
                {
                    "internalType": "bytes32",
                    "name": "",
                    "type": "bytes32"
                }
            ],
            "name": "books",
            "outputs": [
                {
                    "internalType": "string",
                    "name": "author",
                    "type": "string"
                },
                {
                    "internalType": "string",
                    "name": "title",
                    "type": "string"
                },
                {
                    "internalType": "uint8",
                    "name": "copies",
                    "type": "uint8"
                }
            ],
            "stateMutability": "view",
            "type": "function"
        },
        {
            "inputs": [
                {
                    "internalType": "bytes32",
                    "name": "_bookId",
                    "type": "bytes32"
                }
            ],
            "name": "borrowBook",
            "outputs": [],
            "stateMutability": "nonpayable",
            "type": "function"
        },
        {
            "inputs": [
                {
                    "internalType": "address",
                    "name": "",
                    "type": "address"
                },
                {
                    "internalType": "bytes32",
                    "name": "",
                    "type": "bytes32"
                }
            ],
            "name": "borrowedBook",
            "outputs": [
                {
                    "internalType": "bool",
                    "name": "",
                    "type": "bool"
                }
            ],
            "stateMutability": "view",
            "type": "function"
        },
        {
            "inputs": [
                {
                    "internalType": "bytes32",
                    "name": "_bookId",
                    "type": "bytes32"
                }
            ],
            "name": "getAllAddressesThatBorrowedBook",
            "outputs": [
                {
                    "internalType": "address[]",
                    "name": "",
                    "type": "address[]"
                }
            ],
            "stateMutability": "view",
            "type": "function"
        },
        {
            "inputs": [],
            "name": "getAllAvailableBooks",
            "outputs": [
                {
                    "internalType": "bytes32[]",
                    "name": "",
                    "type": "bytes32[]"
                }
            ],
            "stateMutability": "view",
            "type": "function"
        },
        {
            "inputs": [],
            "name": "owner",
            "outputs": [
                {
                    "internalType": "address",
                    "name": "",
                    "type": "address"
                }
            ],
            "stateMutability": "view",
            "type": "function"
        },
        {
            "inputs": [],
            "name": "renounceOwnership",
            "outputs": [],
            "stateMutability": "nonpayable",
            "type": "function"
        },
        {
            "inputs": [
                {
                    "internalType": "bytes32",
                    "name": "_bookId",
                    "type": "bytes32"
                }
            ],
            "name": "returnBook",
            "outputs": [],
            "stateMutability": "nonpayable",
            "type": "function"
        },
        {
            "inputs": [
                {
                    "internalType": "address",
                    "name": "newOwner",
                    "type": "address"
                }
            ],
            "name": "transferOwnership",
            "outputs": [],
            "stateMutability": "nonpayable",
            "type": "function"
        }
    ],
    "bytecode": "0x608060405234801561001057600080fd5b5061002d61002261003260201b60201c565b61003a60201b60201c565b6100fe565b600033905090565b60008060009054906101000a900473ffffffffffffffffffffffffffffffffffffffff169050816000806101000a81548173ffffffffffffffffffffffffffffffffffffffff021916908373ffffffffffffffffffffffffffffffffffffffff1602179055508173ffffffffffffffffffffffffffffffffffffffff168173ffffffffffffffffffffffffffffffffffffffff167f8be0079c531659141344cd1fd0a4f28419497f9722a3daafe3b4186f6b6457e060405160405180910390a35050565b612140806200010e6000396000f3fe608060405234801561001057600080fd5b50600436106100b45760003560e01c80639888198411610071578063988819841461017b578063bddc6fa7146101ab578063d25a4348146101db578063e453d464146101f7578063f2fde38b14610227578063f4cbc4a614610243576100b4565b80630c0dee70146100b957806312775c16146100eb5780632ffbc1751461010757806342657fd214610123578063715018a6146101535780638da5cb5b1461015d575b600080fd5b6100d360048036038101906100ce9190611195565b610261565b6040516100e29392919061126e565b60405180910390f35b61010560048036038101906101009190611195565b6103a8565b005b610121600480360381019061011c9190611414565b61060a565b005b61013d60048036038101906101389190611195565b61087f565b60405161014a91906114ba565b60405180910390f35b61015b61089f565b005b6101656108b3565b6040516101729190611516565b60405180910390f35b61019560048036038101906101909190611567565b6108dc565b6040516101a291906115a3565b60405180910390f35b6101c560048036038101906101c091906115ea565b610900565b6040516101d291906114ba565b60405180910390f35b6101f560048036038101906101f09190611195565b61092f565b005b610211600480360381019061020c9190611195565b610c54565b60405161021e91906116e8565b60405180910390f35b610241600480360381019061023c919061170a565b610d42565b005b61024b610dc5565b60405161025891906117f5565b60405180910390f35b600460205280600052604060002060009150905080600001805461028490611846565b80601f01602080910402602001604051908101604052809291908181526020018280546102b090611846565b80156102fd5780601f106102d2576101008083540402835291602001916102fd565b820191906000526020600020905b8154815290600101906020018083116102e057829003601f168201915b50505050509080600101805461031290611846565b80601f016020809104026020016040519081016040528092919081815260200182805461033e90611846565b801561038b5780601f106103605761010080835404028352916020019161038b565b820191906000526020600020905b81548152906001019060200180831161036e57829003601f168201915b5050505050908060020160009054906101000a900460ff16905083565b806103b281610eee565b6103f1576040517f08c379a00000000000000000000000000000000000000000000000000000000081526004016103e8906118c3565b60405180910390fd5b600560003373ffffffffffffffffffffffffffffffffffffffff1673ffffffffffffffffffffffffffffffffffffffff168152602001908152602001600020600083815260200190815260200160002060009054906101000a900460ff1661048e576040517f08c379a000000000000000000000000000000000000000000000000000000000815260040161048590611955565b60405180910390fd5b60046000838152602001908152602001600020600201600081819054906101000a900460ff16809291906104c1906119a4565b91906101000a81548160ff021916908360ff160217905550506000600560003373ffffffffffffffffffffffffffffffffffffffff1673ffffffffffffffffffffffffffffffffffffffff168152602001908152602001600020600084815260200190815260200160002060006101000a81548160ff0219169083151502179055506003600083815260200190815260200160002060009054906101000a900460ff166105cd5760016003600084815260200190815260200160002060006101000a81548160ff0219169083151502179055506002600081819054906101000a900460ff16809291906105b3906119a4565b91906101000a81548160ff021916908360ff160217905550505b7fa65a21e10b675f2d7d838656fb32865341cfe1f3efa5848ab45a62fb39b567e633836040516105fe9291906119cd565b60405180910390a15050565b610612610f5a565b8282826000839050600083905060008251118015610631575060008151115b8015610640575060008360ff16115b61067f576040517f08c379a000000000000000000000000000000000000000000000000000000000815260040161067690611a42565b60405180910390fd5b6000876040516020016106929190611a9e565b6040516020818303038152906040528051906020012090506106b381610eee565b61078957606060405180608001604052808b81526020018a8152602001600060ff168152602001828152506004600084815260200190815260200160002060008201518160000190816107069190611c61565b50602082015181600101908161071c9190611c61565b5060408201518160020160006101000a81548160ff021916908360ff160217905550606082015181600301908051906020019061075a9291906110a4565b509050506001829080600181540180825580915050600190039060005260206000200160009091909190915055505b866004600083815260200190815260200160002060020160008282829054906101000a900460ff166107bb9190611d33565b92506101000a81548160ff021916908360ff16021790555060016003600083815260200190815260200160002060006101000a81548160ff0219169083151502179055506002600081819054906101000a900460ff168092919061081e906119a4565b91906101000a81548160ff021916908360ff160217905550507fa4a6daf3b02131d019e6b644177354a5a192d95777afa374455e4af6b353a8a0818a8a8a60405161086c9493929190611d68565b60405180910390a1505050505050505050565b60036020528060005260406000206000915054906101000a900460ff1681565b6108a7610f5a565b6108b16000610fd8565b565b60008060009054906101000a900473ffffffffffffffffffffffffffffffffffffffff16905090565b600181815481106108ec57600080fd5b906000526020600020016000915090505481565b60056020528160005260406000206020528060005260406000206000915091509054906101000a900460ff1681565b8061093981610eee565b610978576040517f08c379a000000000000000000000000000000000000000000000000000000000815260040161096f906118c3565b60405180910390fd5b600560003373ffffffffffffffffffffffffffffffffffffffff1673ffffffffffffffffffffffffffffffffffffffff168152602001908152602001600020600083815260200190815260200160002060009054906101000a900460ff1615610a16576040517f08c379a0000000000000000000000000000000000000000000000000000000008152600401610a0d90611e2d565b60405180910390fd5b6003600083815260200190815260200160002060009054906101000a900460ff16610a76576040517f08c379a0000000000000000000000000000000000000000000000000000000008152600401610a6d90611ebf565b60405180910390fd5b600060046000848152602001908152602001600020905080600301339080600181540180825580915050600190039060005260206000200160009091909190916101000a81548173ffffffffffffffffffffffffffffffffffffffff021916908373ffffffffffffffffffffffffffffffffffffffff16021790555080600201600081819054906101000a900460ff1680929190610b1390611edf565b91906101000a81548160ff021916908360ff1602179055505060008160020160009054906101000a900460ff1660ff1603610bad5760006003600085815260200190815260200160002060006101000a81548160ff0219169083151502179055506002600081819054906101000a900460ff1680929190610b9390611edf565b91906101000a81548160ff021916908360ff160217905550505b6001600560003373ffffffffffffffffffffffffffffffffffffffff1673ffffffffffffffffffffffffffffffffffffffff168152602001908152602001600020600085815260200190815260200160002060006101000a81548160ff0219169083151502179055507f31e592966df076b68f18cf9711b4dbd4aae7d23d24a8bb1800d62df9840b3b023384604051610c479291906119cd565b60405180910390a1505050565b606081610c6081610eee565b610c9f576040517f08c379a0000000000000000000000000000000000000000000000000000000008152600401610c96906118c3565b60405180910390fd5b60046000848152602001908152602001600020600301805480602002602001604051908101604052809291908181526020018280548015610d3557602002820191906000526020600020905b8160009054906101000a900473ffffffffffffffffffffffffffffffffffffffff1673ffffffffffffffffffffffffffffffffffffffff1681526020019060010190808311610ceb575b5050505050915050919050565b610d4a610f5a565b600073ffffffffffffffffffffffffffffffffffffffff168173ffffffffffffffffffffffffffffffffffffffff1603610db9576040517f08c379a0000000000000000000000000000000000000000000000000000000008152600401610db090611f7a565b60405180910390fd5b610dc281610fd8565b50565b60606000600260009054906101000a900460ff1660ff1667ffffffffffffffff811115610df557610df46112bd565b5b604051908082528060200260200182016040528015610e235781602001602082028036833780820191505090505b5090506000805b6001805490508160ff161015610ee5576003600060018360ff1681548110610e5557610e54611f9a565b5b9060005260206000200154815260200190815260200160002060009054906101000a900460ff1615610ed25760018160ff1681548110610e9857610e97611f9a565b5b9060005260206000200154838380610eaf906119a4565b945060ff1681518110610ec557610ec4611f9a565b5b6020026020010181815250505b8080610edd906119a4565b915050610e2a565b50819250505090565b6000604051602001610eff90611fef565b6040516020818303038152906040528051906020012060046000848152602001908152602001600020600101604051602001610f3b9190612087565b6040516020818303038152906040528051906020012014159050919050565b610f6261109c565b73ffffffffffffffffffffffffffffffffffffffff16610f806108b3565b73ffffffffffffffffffffffffffffffffffffffff1614610fd6576040517f08c379a0000000000000000000000000000000000000000000000000000000008152600401610fcd906120ea565b60405180910390fd5b565b60008060009054906101000a900473ffffffffffffffffffffffffffffffffffffffff169050816000806101000a81548173ffffffffffffffffffffffffffffffffffffffff021916908373ffffffffffffffffffffffffffffffffffffffff1602179055508173ffffffffffffffffffffffffffffffffffffffff168173ffffffffffffffffffffffffffffffffffffffff167f8be0079c531659141344cd1fd0a4f28419497f9722a3daafe3b4186f6b6457e060405160405180910390a35050565b600033905090565b82805482825590600052602060002090810192821561111d579160200282015b8281111561111c5782518260006101000a81548173ffffffffffffffffffffffffffffffffffffffff021916908373ffffffffffffffffffffffffffffffffffffffff160217905550916020019190600101906110c4565b5b50905061112a919061112e565b5090565b5b8082111561114757600081600090555060010161112f565b5090565b6000604051905090565b600080fd5b600080fd5b6000819050919050565b6111728161115f565b811461117d57600080fd5b50565b60008135905061118f81611169565b92915050565b6000602082840312156111ab576111aa611155565b5b60006111b984828501611180565b91505092915050565b600081519050919050565b600082825260208201905092915050565b60005b838110156111fc5780820151818401526020810190506111e1565b60008484015250505050565b6000601f19601f8301169050919050565b6000611224826111c2565b61122e81856111cd565b935061123e8185602086016111de565b61124781611208565b840191505092915050565b600060ff82169050919050565b61126881611252565b82525050565b600060608201905081810360008301526112888186611219565b9050818103602083015261129c8185611219565b90506112ab604083018461125f565b949350505050565b600080fd5b600080fd5b7f4e487b7100000000000000000000000000000000000000000000000000000000600052604160045260246000fd5b6112f582611208565b810181811067ffffffffffffffff82111715611314576113136112bd565b5b80604052505050565b600061132761114b565b905061133382826112ec565b919050565b600067ffffffffffffffff821115611353576113526112bd565b5b61135c82611208565b9050602081019050919050565b82818337600083830152505050565b600061138b61138684611338565b61131d565b9050828152602081018484840111156113a7576113a66112b8565b5b6113b2848285611369565b509392505050565b600082601f8301126113cf576113ce6112b3565b5b81356113df848260208601611378565b91505092915050565b6113f181611252565b81146113fc57600080fd5b50565b60008135905061140e816113e8565b92915050565b60008060006060848603121561142d5761142c611155565b5b600084013567ffffffffffffffff81111561144b5761144a61115a565b5b611457868287016113ba565b935050602084013567ffffffffffffffff8111156114785761147761115a565b5b611484868287016113ba565b9250506040611495868287016113ff565b9150509250925092565b60008115159050919050565b6114b48161149f565b82525050565b60006020820190506114cf60008301846114ab565b92915050565b600073ffffffffffffffffffffffffffffffffffffffff82169050919050565b6000611500826114d5565b9050919050565b611510816114f5565b82525050565b600060208201905061152b6000830184611507565b92915050565b6000819050919050565b61154481611531565b811461154f57600080fd5b50565b6000813590506115618161153b565b92915050565b60006020828403121561157d5761157c611155565b5b600061158b84828501611552565b91505092915050565b61159d8161115f565b82525050565b60006020820190506115b86000830184611594565b92915050565b6115c7816114f5565b81146115d257600080fd5b50565b6000813590506115e4816115be565b92915050565b6000806040838503121561160157611600611155565b5b600061160f858286016115d5565b925050602061162085828601611180565b9150509250929050565b600081519050919050565b600082825260208201905092915050565b6000819050602082019050919050565b61165f816114f5565b82525050565b60006116718383611656565b60208301905092915050565b6000602082019050919050565b60006116958261162a565b61169f8185611635565b93506116aa83611646565b8060005b838110156116db5781516116c28882611665565b97506116cd8361167d565b9250506001810190506116ae565b5085935050505092915050565b60006020820190508181036000830152611702818461168a565b905092915050565b6000602082840312156117205761171f611155565b5b600061172e848285016115d5565b91505092915050565b600081519050919050565b600082825260208201905092915050565b6000819050602082019050919050565b61176c8161115f565b82525050565b600061177e8383611763565b60208301905092915050565b6000602082019050919050565b60006117a282611737565b6117ac8185611742565b93506117b783611753565b8060005b838110156117e85781516117cf8882611772565b97506117da8361178a565b9250506001810190506117bb565b5085935050505092915050565b6000602082019050818103600083015261180f8184611797565b905092915050565b7f4e487b7100000000000000000000000000000000000000000000000000000000600052602260045260246000fd5b6000600282049050600182168061185e57607f821691505b60208210810361187157611870611817565b5b50919050565b7f426f6f6b2077697468207375636820496420646f6573206e6f74206578697374600082015250565b60006118ad6020836111cd565b91506118b882611877565b602082019050919050565b600060208201905081810360008301526118dc816118a0565b9050919050565b7f596f752063616e6e6f742072657475726e206120626f6f6b207468617420796f60008201527f752068617665206e6f7420626f72726f77656421000000000000000000000000602082015250565b600061193f6034836111cd565b915061194a826118e3565b604082019050919050565b6000602082019050818103600083015261196e81611932565b9050919050565b7f4e487b7100000000000000000000000000000000000000000000000000000000600052601160045260246000fd5b60006119af82611252565b915060ff82036119c2576119c1611975565b5b600182019050919050565b60006040820190506119e26000830185611507565b6119ef6020830184611594565b9392505050565b7f426f6f6b2064617461206973206e6f742076616c696421000000000000000000600082015250565b6000611a2c6017836111cd565b9150611a37826119f6565b602082019050919050565b60006020820190508181036000830152611a5b81611a1f565b9050919050565b600081905092915050565b6000611a78826111c2565b611a828185611a62565b9350611a928185602086016111de565b80840191505092915050565b6000611aaa8284611a6d565b915081905092915050565b60008190508160005260206000209050919050565b60006020601f8301049050919050565b600082821b905092915050565b600060088302611b177fffffffffffffffffffffffffffffffffffffffffffffffffffffffffffffffff82611ada565b611b218683611ada565b95508019841693508086168417925050509392505050565b6000819050919050565b6000611b5e611b59611b5484611531565b611b39565b611531565b9050919050565b6000819050919050565b611b7883611b43565b611b8c611b8482611b65565b848454611ae7565b825550505050565b600090565b611ba1611b94565b611bac818484611b6f565b505050565b5b81811015611bd057611bc5600082611b99565b600181019050611bb2565b5050565b601f821115611c1557611be681611ab5565b611bef84611aca565b81016020851015611bfe578190505b611c12611c0a85611aca565b830182611bb1565b50505b505050565b600082821c905092915050565b6000611c3860001984600802611c1a565b1980831691505092915050565b6000611c518383611c27565b9150826002028217905092915050565b611c6a826111c2565b67ffffffffffffffff811115611c8357611c826112bd565b5b611c8d8254611846565b611c98828285611bd4565b600060209050601f831160018114611ccb5760008415611cb9578287015190505b611cc38582611c45565b865550611d2b565b601f198416611cd986611ab5565b60005b82811015611d0157848901518255600182019150602085019450602081019050611cdc565b86831015611d1e5784890151611d1a601f891682611c27565b8355505b6001600288020188555050505b505050505050565b6000611d3e82611252565b9150611d4983611252565b9250828201905060ff811115611d6257611d61611975565b5b92915050565b6000608082019050611d7d6000830187611594565b8181036020830152611d8f8186611219565b90508181036040830152611da38185611219565b9050611db2606083018461125f565b95945050505050565b7f596f75206861766520616c726561647920626f72726f7765642074686973206260008201527f6f6f6b2100000000000000000000000000000000000000000000000000000000602082015250565b6000611e176024836111cd565b9150611e2282611dbb565b604082019050919050565b60006020820190508181036000830152611e4681611e0a565b9050919050565b7f546865726520617265206e6f20617661696c61626c6520636f70696573206f6660008201527f207468697320626f6f6b207269676874206e6f77210000000000000000000000602082015250565b6000611ea96035836111cd565b9150611eb482611e4d565b604082019050919050565b60006020820190508181036000830152611ed881611e9c565b9050919050565b6000611eea82611252565b915060008203611efd57611efc611975565b5b600182039050919050565b7f4f776e61626c653a206e6577206f776e657220697320746865207a65726f206160008201527f6464726573730000000000000000000000000000000000000000000000000000602082015250565b6000611f646026836111cd565b9150611f6f82611f08565b604082019050919050565b60006020820190508181036000830152611f9381611f57565b9050919050565b7f4e487b7100000000000000000000000000000000000000000000000000000000600052603260045260246000fd5b50565b6000611fd9600083611a62565b9150611fe482611fc9565b600082019050919050565b6000611ffa82611fcc565b9150819050919050565b6000815461201181611846565b61201b8186611a62565b94506001821660008114612036576001811461204b5761207e565b60ff198316865281151582028601935061207e565b61205485611ab5565b60005b8381101561207657815481890152600182019150602081019050612057565b838801955050505b50505092915050565b60006120938284612004565b915081905092915050565b7f4f776e61626c653a2063616c6c6572206973206e6f7420746865206f776e6572600082015250565b60006120d46020836111cd565b91506120df8261209e565b602082019050919050565b60006020820190508181036000830152612103816120c7565b905091905056fea2646970667358221220337603f15f36b0d1c086ebb5336b1f31702332eccc0cb21db42170dd31184bd864736f6c63430008120033",
    "linkReferences": {},
    "deployedLinkReferences": {}
}